{
  "_format": "hh-sol-artifact-1",
  "contractName": "TokenMaster",
  "sourceName": "contracts/TokenMaster.sol",
  "abi": [
    {
      "inputs": [
        {
          "internalType": "string",
          "name": "_name",
          "type": "string"
        },
        {
          "internalType": "string",
          "name": "_symbol",
          "type": "string"
        }
      ],
      "stateMutability": "nonpayable",
      "type": "constructor"
    },
    {
      "inputs": [
        {
          "internalType": "address",
          "name": "sender",
          "type": "address"
        },
        {
          "internalType": "uint256",
          "name": "tokenId",
          "type": "uint256"
        },
        {
          "internalType": "address",
          "name": "owner",
          "type": "address"
        }
      ],
      "name": "ERC721IncorrectOwner",
      "type": "error"
    },
    {
      "inputs": [
        {
          "internalType": "address",
          "name": "operator",
          "type": "address"
        },
        {
          "internalType": "uint256",
          "name": "tokenId",
          "type": "uint256"
        }
      ],
      "name": "ERC721InsufficientApproval",
      "type": "error"
    },
    {
      "inputs": [
        {
          "internalType": "address",
          "name": "approver",
          "type": "address"
        }
      ],
      "name": "ERC721InvalidApprover",
      "type": "error"
    },
    {
      "inputs": [
        {
          "internalType": "address",
          "name": "operator",
          "type": "address"
        }
      ],
      "name": "ERC721InvalidOperator",
      "type": "error"
    },
    {
      "inputs": [
        {
          "internalType": "address",
          "name": "owner",
          "type": "address"
        }
      ],
      "name": "ERC721InvalidOwner",
      "type": "error"
    },
    {
      "inputs": [
        {
          "internalType": "address",
          "name": "receiver",
          "type": "address"
        }
      ],
      "name": "ERC721InvalidReceiver",
      "type": "error"
    },
    {
      "inputs": [
        {
          "internalType": "address",
          "name": "sender",
          "type": "address"
        }
      ],
      "name": "ERC721InvalidSender",
      "type": "error"
    },
    {
      "inputs": [
        {
          "internalType": "uint256",
          "name": "tokenId",
          "type": "uint256"
        }
      ],
      "name": "ERC721NonexistentToken",
      "type": "error"
    },
    {
      "anonymous": false,
      "inputs": [
        {
          "indexed": true,
          "internalType": "address",
          "name": "owner",
          "type": "address"
        },
        {
          "indexed": true,
          "internalType": "address",
          "name": "approved",
          "type": "address"
        },
        {
          "indexed": true,
          "internalType": "uint256",
          "name": "tokenId",
          "type": "uint256"
        }
      ],
      "name": "Approval",
      "type": "event"
    },
    {
      "anonymous": false,
      "inputs": [
        {
          "indexed": true,
          "internalType": "address",
          "name": "owner",
          "type": "address"
        },
        {
          "indexed": true,
          "internalType": "address",
          "name": "operator",
          "type": "address"
        },
        {
          "indexed": false,
          "internalType": "bool",
          "name": "approved",
          "type": "bool"
        }
      ],
      "name": "ApprovalForAll",
      "type": "event"
    },
    {
      "anonymous": false,
      "inputs": [
        {
          "indexed": true,
          "internalType": "address",
          "name": "from",
          "type": "address"
        },
        {
          "indexed": true,
          "internalType": "address",
          "name": "to",
          "type": "address"
        },
        {
          "indexed": true,
          "internalType": "uint256",
          "name": "tokenId",
          "type": "uint256"
        }
      ],
      "name": "Transfer",
      "type": "event"
    },
    {
      "inputs": [
        {
          "internalType": "address",
          "name": "to",
          "type": "address"
        },
        {
          "internalType": "uint256",
          "name": "tokenId",
          "type": "uint256"
        }
      ],
      "name": "approve",
      "outputs": [],
      "stateMutability": "nonpayable",
      "type": "function"
    },
    {
      "inputs": [
        {
          "internalType": "address",
          "name": "owner",
          "type": "address"
        }
      ],
      "name": "balanceOf",
      "outputs": [
        {
          "internalType": "uint256",
          "name": "",
          "type": "uint256"
        }
      ],
      "stateMutability": "view",
      "type": "function"
    },
    {
      "inputs": [
        {
          "internalType": "uint256",
          "name": "tokenId",
          "type": "uint256"
        }
      ],
      "name": "buyTicket",
      "outputs": [],
      "stateMutability": "payable",
      "type": "function"
    },
    {
      "inputs": [
        {
          "internalType": "uint256",
          "name": "_id",
          "type": "uint256"
        },
        {
          "internalType": "uint256",
          "name": "_seat",
          "type": "uint256"
        },
        {
          "internalType": "address",
          "name": "_recipient",
          "type": "address"
        }
      ],
      "name": "createTicket",
      "outputs": [],
      "stateMutability": "nonpayable",
      "type": "function"
    },
    {
      "inputs": [
        {
          "internalType": "uint256",
          "name": "tokenId",
          "type": "uint256"
        }
      ],
      "name": "getApproved",
      "outputs": [
        {
          "internalType": "address",
          "name": "",
          "type": "address"
        }
      ],
      "stateMutability": "view",
      "type": "function"
    },
    {
      "inputs": [
        {
          "internalType": "uint256",
          "name": "_id",
          "type": "uint256"
        }
      ],
      "name": "getOccasion",
      "outputs": [
        {
          "components": [
            {
              "internalType": "uint256",
              "name": "id",
              "type": "uint256"
            },
            {
              "internalType": "string",
              "name": "name",
              "type": "string"
            },
            {
              "internalType": "uint256",
              "name": "cost",
              "type": "uint256"
            },
            {
              "internalType": "uint256",
              "name": "tickets",
              "type": "uint256"
            },
            {
              "internalType": "uint256",
              "name": "maxTickets",
              "type": "uint256"
            },
            {
              "internalType": "string",
              "name": "date",
              "type": "string"
            },
            {
              "internalType": "string",
              "name": "time",
              "type": "string"
            },
            {
              "internalType": "string",
              "name": "location",
              "type": "string"
            }
          ],
          "internalType": "struct TokenMaster.Occasion",
          "name": "",
          "type": "tuple"
        }
      ],
      "stateMutability": "view",
      "type": "function"
    },
    {
      "inputs": [
        {
          "internalType": "uint256",
          "name": "_id",
          "type": "uint256"
        }
      ],
      "name": "getSeatsTaken",
      "outputs": [
        {
          "internalType": "uint256[]",
          "name": "",
          "type": "uint256[]"
        }
      ],
      "stateMutability": "view",
      "type": "function"
    },
    {
      "inputs": [
        {
          "internalType": "uint256",
          "name": "",
          "type": "uint256"
        },
        {
          "internalType": "address",
          "name": "",
          "type": "address"
        }
      ],
      "name": "hasBought",
      "outputs": [
        {
          "internalType": "bool",
          "name": "",
          "type": "bool"
        }
      ],
      "stateMutability": "view",
      "type": "function"
    },
    {
      "inputs": [
        {
          "internalType": "address",
          "name": "owner",
          "type": "address"
        },
        {
          "internalType": "address",
          "name": "operator",
          "type": "address"
        }
      ],
      "name": "isApprovedForAll",
      "outputs": [
        {
          "internalType": "bool",
          "name": "",
          "type": "bool"
        }
      ],
      "stateMutability": "view",
      "type": "function"
    },
    {
      "inputs": [
        {
          "internalType": "string",
          "name": "_name",
          "type": "string"
        },
        {
          "internalType": "uint256",
          "name": "_cost",
          "type": "uint256"
        },
        {
          "internalType": "uint256",
          "name": "_maxTickets",
          "type": "uint256"
        },
        {
          "internalType": "string",
          "name": "_date",
          "type": "string"
        },
        {
          "internalType": "string",
          "name": "_time",
          "type": "string"
        },
        {
          "internalType": "string",
          "name": "_location",
          "type": "string"
        }
      ],
      "name": "list",
      "outputs": [],
      "stateMutability": "nonpayable",
      "type": "function"
    },
    {
      "inputs": [
        {
          "internalType": "uint256",
          "name": "_id",
          "type": "uint256"
        },
        {
          "internalType": "uint256",
          "name": "_seat",
          "type": "uint256"
        }
      ],
      "name": "mint",
      "outputs": [],
      "stateMutability": "payable",
      "type": "function"
    },
    {
      "inputs": [],
      "name": "name",
      "outputs": [
        {
          "internalType": "string",
          "name": "",
          "type": "string"
        }
      ],
      "stateMutability": "view",
      "type": "function"
    },
    {
      "inputs": [],
      "name": "owner",
      "outputs": [
        {
          "internalType": "address",
          "name": "",
          "type": "address"
        }
      ],
      "stateMutability": "view",
      "type": "function"
    },
    {
      "inputs": [
        {
          "internalType": "uint256",
          "name": "tokenId",
          "type": "uint256"
        }
      ],
      "name": "ownerOf",
      "outputs": [
        {
          "internalType": "address",
          "name": "",
          "type": "address"
        }
      ],
      "stateMutability": "view",
      "type": "function"
    },
    {
      "inputs": [
        {
          "internalType": "address",
          "name": "from",
          "type": "address"
        },
        {
          "internalType": "address",
          "name": "to",
          "type": "address"
        },
        {
          "internalType": "uint256",
          "name": "tokenId",
          "type": "uint256"
        }
      ],
      "name": "safeTransferFrom",
      "outputs": [],
      "stateMutability": "nonpayable",
      "type": "function"
    },
    {
      "inputs": [
        {
          "internalType": "address",
          "name": "from",
          "type": "address"
        },
        {
          "internalType": "address",
          "name": "to",
          "type": "address"
        },
        {
          "internalType": "uint256",
          "name": "tokenId",
          "type": "uint256"
        },
        {
          "internalType": "bytes",
          "name": "data",
          "type": "bytes"
        }
      ],
      "name": "safeTransferFrom",
      "outputs": [],
      "stateMutability": "nonpayable",
      "type": "function"
    },
    {
      "inputs": [
        {
          "internalType": "uint256",
          "name": "",
          "type": "uint256"
        },
        {
          "internalType": "uint256",
          "name": "",
          "type": "uint256"
        }
      ],
      "name": "seatTaken",
      "outputs": [
        {
          "internalType": "address",
          "name": "",
          "type": "address"
        }
      ],
      "stateMutability": "view",
      "type": "function"
    },
    {
      "inputs": [
        {
          "internalType": "uint256",
          "name": "tokenId",
          "type": "uint256"
        },
        {
          "internalType": "uint256",
          "name": "price",
          "type": "uint256"
        }
      ],
      "name": "sellTicket",
      "outputs": [],
      "stateMutability": "nonpayable",
      "type": "function"
    },
    {
      "inputs": [
        {
          "internalType": "address",
          "name": "operator",
          "type": "address"
        },
        {
          "internalType": "bool",
          "name": "approved",
          "type": "bool"
        }
      ],
      "name": "setApprovalForAll",
      "outputs": [],
      "stateMutability": "nonpayable",
      "type": "function"
    },
    {
      "inputs": [
        {
          "internalType": "bytes4",
          "name": "interfaceId",
          "type": "bytes4"
        }
      ],
      "name": "supportsInterface",
      "outputs": [
        {
          "internalType": "bool",
          "name": "",
          "type": "bool"
        }
      ],
      "stateMutability": "view",
      "type": "function"
    },
    {
      "inputs": [],
      "name": "symbol",
      "outputs": [
        {
          "internalType": "string",
          "name": "",
          "type": "string"
        }
      ],
      "stateMutability": "view",
      "type": "function"
    },
    {
      "inputs": [
        {
          "internalType": "uint256",
          "name": "",
          "type": "uint256"
        }
      ],
      "name": "ticketsForSale",
      "outputs": [
        {
          "internalType": "address",
          "name": "seller",
          "type": "address"
        },
        {
          "internalType": "uint256",
          "name": "price",
          "type": "uint256"
        },
        {
          "internalType": "bool",
          "name": "isListed",
          "type": "bool"
        }
      ],
      "stateMutability": "view",
      "type": "function"
    },
    {
      "inputs": [
        {
          "internalType": "uint256",
          "name": "tokenId",
          "type": "uint256"
        }
      ],
      "name": "tokenURI",
      "outputs": [
        {
          "internalType": "string",
          "name": "",
          "type": "string"
        }
      ],
      "stateMutability": "view",
      "type": "function"
    },
    {
      "inputs": [],
      "name": "totalOccasions",
      "outputs": [
        {
          "internalType": "uint256",
          "name": "",
          "type": "uint256"
        }
      ],
      "stateMutability": "view",
      "type": "function"
    },
    {
      "inputs": [],
      "name": "totalSupply",
      "outputs": [
        {
          "internalType": "uint256",
          "name": "",
          "type": "uint256"
        }
      ],
      "stateMutability": "view",
      "type": "function"
    },
    {
      "inputs": [
        {
          "internalType": "address",
          "name": "from",
          "type": "address"
        },
        {
          "internalType": "address",
          "name": "to",
          "type": "address"
        },
        {
          "internalType": "uint256",
          "name": "tokenId",
          "type": "uint256"
        }
      ],
      "name": "transferFrom",
      "outputs": [],
      "stateMutability": "nonpayable",
      "type": "function"
    },
    {
      "inputs": [],
      "name": "withdraw",
      "outputs": [],
      "stateMutability": "nonpayable",
      "type": "function"
    }
  ],
  "bytecode": "0x608060405234801561001057600080fd5b5060405161482e38038061482e83398181016040528101906100329190610213565b8181816000908161004391906104ac565b50806001908161005391906104ac565b50505033600660006101000a81548173ffffffffffffffffffffffffffffffffffffffff021916908373ffffffffffffffffffffffffffffffffffffffff160217905550505061057e565b6000604051905090565b600080fd5b600080fd5b600080fd5b600080fd5b6000601f19601f8301169050919050565b7f4e487b7100000000000000000000000000000000000000000000000000000000600052604160045260246000fd5b610105826100bc565b810181811067ffffffffffffffff82111715610124576101236100cd565b5b80604052505050565b600061013761009e565b905061014382826100fc565b919050565b600067ffffffffffffffff821115610163576101626100cd565b5b61016c826100bc565b9050602081019050919050565b60005b8381101561019757808201518184015260208101905061017c565b60008484015250505050565b60006101b66101b184610148565b61012d565b9050828152602081018484840111156101d2576101d16100b7565b5b6101dd848285610179565b509392505050565b600082601f8301126101fa576101f96100b2565b5b815161020a8482602086016101a3565b91505092915050565b6000806040838503121561022a576102296100a8565b5b600083015167ffffffffffffffff811115610248576102476100ad565b5b610254858286016101e5565b925050602083015167ffffffffffffffff811115610275576102746100ad565b5b610281858286016101e5565b9150509250929050565b600081519050919050565b7f4e487b7100000000000000000000000000000000000000000000000000000000600052602260045260246000fd5b600060028204905060018216806102dd57607f821691505b6020821081036102f0576102ef610296565b5b50919050565b60008190508160005260206000209050919050565b60006020601f8301049050919050565b600082821b905092915050565b6000600883026103587fffffffffffffffffffffffffffffffffffffffffffffffffffffffffffffffff8261031b565b610362868361031b565b95508019841693508086168417925050509392505050565b6000819050919050565b6000819050919050565b60006103a96103a461039f8461037a565b610384565b61037a565b9050919050565b6000819050919050565b6103c38361038e565b6103d76103cf826103b0565b848454610328565b825550505050565b600090565b6103ec6103df565b6103f78184846103ba565b505050565b5b8181101561041b576104106000826103e4565b6001810190506103fd565b5050565b601f82111561046057610431816102f6565b61043a8461030b565b81016020851015610449578190505b61045d6104558561030b565b8301826103fc565b50505b505050565b600082821c905092915050565b600061048360001984600802610465565b1980831691505092915050565b600061049c8383610472565b9150826002028217905092915050565b6104b58261028b565b67ffffffffffffffff8111156104ce576104cd6100cd565b5b6104d882546102c5565b6104e382828561041f565b600060209050601f8311600181146105165760008415610504578287015190505b61050e8582610490565b865550610576565b601f198416610524866102f6565b60005b8281101561054c57848901518255600182019150602085019450602081019050610527565b868310156105695784890151610565601f891682610472565b8355505b6001600288020188555050505b505050505050565b6142a18061058d6000396000f3fe60806040526004361061019c5760003560e01c806370a08231116100ec5780639cb04aef1161008a578063b88d4fde11610064578063b88d4fde146105e4578063c87b56dd1461060d578063cae1fa511461064a578063e985e9c5146106735761019c565b80639cb04aef14610541578063a22cb4651461057e578063af296da1146105a75761019c565b80638da5cb5b116100c65780638da5cb5b14610497578063953865c1146104c257806395d89b41146104ed5780639a382f0f146105185761019c565b806370a08231146103de57806374bc86561461041b5780637ef3205d146104585761019c565b80631b2ef1ca116101595780633ccfd60b116101335780633ccfd60b1461034557806342842e0e1461035c5780636352211e1461038557806367dd74ca146103c25761019c565b80631b2ef1ca146102d757806323b872dd146102f35780632a6c4c141461031c5761019c565b806301ffc9a7146101a157806306fdde03146101de578063081812fc14610209578063095ea7b3146102465780630ef7ec741461026f57806318160ddd146102ac575b600080fd5b3480156101ad57600080fd5b506101c860048036038101906101c39190612cdb565b6106b0565b6040516101d59190612d23565b60405180910390f35b3480156101ea57600080fd5b506101f3610792565b6040516102009190612dce565b60405180910390f35b34801561021557600080fd5b50610230600480360381019061022b9190612e26565b610824565b60405161023d9190612e94565b60405180910390f35b34801561025257600080fd5b5061026d60048036038101906102689190612edb565b610840565b005b34801561027b57600080fd5b5061029660048036038101906102919190612e26565b610856565b6040516102a39190612fd9565b60405180910390f35b3480156102b857600080fd5b506102c16108c1565b6040516102ce919061300a565b60405180910390f35b6102f160048036038101906102ec9190613025565b6108c7565b005b3480156102ff57600080fd5b5061031a60048036038101906103159190613065565b610c10565b005b34801561032857600080fd5b50610343600480360381019061033e9190613025565b610d12565b005b34801561035157600080fd5b5061035a610e8c565b005b34801561036857600080fd5b50610383600480360381019061037e9190613065565b610fed565b005b34801561039157600080fd5b506103ac60048036038101906103a79190612e26565b61100d565b6040516103b99190612e94565b60405180910390f35b6103dc60048036038101906103d79190612e26565b61101f565b005b3480156103ea57600080fd5b50610405600480360381019061040091906130b8565b611202565b604051610412919061300a565b60405180910390f35b34801561042757600080fd5b50610442600480360381019061043d9190612e26565b6112bc565b60405161044f91906131f4565b60405180910390f35b34801561046457600080fd5b5061047f600480360381019061047a9190612e26565b61155a565b60405161048e93929190613216565b60405180910390f35b3480156104a357600080fd5b506104ac6115b1565b6040516104b99190612e94565b60405180910390f35b3480156104ce57600080fd5b506104d76115d7565b6040516104e4919061300a565b60405180910390f35b3480156104f957600080fd5b506105026115dd565b60405161050f9190612dce565b60405180910390f35b34801561052457600080fd5b5061053f600480360381019061053a9190613382565b61166f565b005b34801561054d57600080fd5b506105686004803603810190610563919061347f565b6117f3565b6040516105759190612d23565b60405180910390f35b34801561058a57600080fd5b506105a560048036038101906105a091906134eb565b611822565b005b3480156105b357600080fd5b506105ce60048036038101906105c99190613025565b611838565b6040516105db9190612e94565b60405180910390f35b3480156105f057600080fd5b5061060b600480360381019061060691906135cc565b61187a565b005b34801561061957600080fd5b50610634600480360381019061062f9190612e26565b61189f565b6040516106419190612dce565b60405180910390f35b34801561065657600080fd5b50610671600480360381019061066c919061364f565b611908565b005b34801561067f57600080fd5b5061069a600480360381019061069591906136a2565b611cac565b6040516106a79190612d23565b60405180910390f35b60007f80ac58cd000000000000000000000000000000000000000000000000000000007bffffffffffffffffffffffffffffffffffffffffffffffffffffffff1916827bffffffffffffffffffffffffffffffffffffffffffffffffffffffff1916148061077b57507f5b5e139f000000000000000000000000000000000000000000000000000000007bffffffffffffffffffffffffffffffffffffffffffffffffffffffff1916827bffffffffffffffffffffffffffffffffffffffffffffffffffffffff1916145b8061078b575061078a82611d40565b5b9050919050565b6060600080546107a190613711565b80601f01602080910402602001604051908101604052809291908181526020018280546107cd90613711565b801561081a5780601f106107ef5761010080835404028352916020019161081a565b820191906000526020600020905b8154815290600101906020018083116107fd57829003601f168201915b5050505050905090565b600061082f82611daa565b5061083982611e32565b9050919050565b610852828261084d611e6f565b611e77565b5050565b6060600c60008381526020019081526020016000208054806020026020016040519081016040528092919081815260200182805480156108b557602002820191906000526020600020905b8154815260200190600101908083116108a1575b50505050509050919050565b60085481565b6000820361090a576040517f08c379a00000000000000000000000000000000000000000000000000000000081526004016109019061378e565b60405180910390fd5b60075482111561094f576040517f08c379a0000000000000000000000000000000000000000000000000000000008152600401610946906137fa565b60405180910390fd5b60096000838152602001908152602001600020600201543410156109a8576040517f08c379a000000000000000000000000000000000000000000000000000000000815260040161099f90613866565b60405180910390fd5b600073ffffffffffffffffffffffffffffffffffffffff16600b6000848152602001908152602001600020600083815260200190815260200160002060009054906101000a900473ffffffffffffffffffffffffffffffffffffffff1673ffffffffffffffffffffffffffffffffffffffff1614610a5b576040517f08c379a0000000000000000000000000000000000000000000000000000000008152600401610a52906138d2565b60405180910390fd5b6009600083815260200190815260200160002060040154811115610ab4576040517f08c379a0000000000000000000000000000000000000000000000000000000008152600401610aab9061393e565b60405180910390fd5b6001600960008481526020019081526020016000206003016000828254610adb919061398d565b925050819055506001600a600084815260200190815260200160002060003373ffffffffffffffffffffffffffffffffffffffff1673ffffffffffffffffffffffffffffffffffffffff16815260200190815260200160002060006101000a81548160ff02191690831515021790555033600b6000848152602001908152602001600020600083815260200190815260200160002060006101000a81548173ffffffffffffffffffffffffffffffffffffffff021916908373ffffffffffffffffffffffffffffffffffffffff160217905550600c600083815260200190815260200160002081908060018154018082558091505060019003906000526020600020016000909190919091505560086000815480929190610bfb906139c1565b9190505550610c0c33600854611e89565b5050565b600073ffffffffffffffffffffffffffffffffffffffff168273ffffffffffffffffffffffffffffffffffffffff1603610c825760006040517f64a0ae92000000000000000000000000000000000000000000000000000000008152600401610c799190612e94565b60405180910390fd5b6000610c968383610c91611e6f565b611ea7565b90508373ffffffffffffffffffffffffffffffffffffffff168173ffffffffffffffffffffffffffffffffffffffff1614610d0c578382826040517f64283d7b000000000000000000000000000000000000000000000000000000008152600401610d0393929190613a09565b60405180910390fd5b50505050565b813373ffffffffffffffffffffffffffffffffffffffff16610d338261100d565b73ffffffffffffffffffffffffffffffffffffffff1614610d89576040517f08c379a0000000000000000000000000000000000000000000000000000000008152600401610d8090613a8c565b60405180910390fd5b60008211610dcc576040517f08c379a0000000000000000000000000000000000000000000000000000000008152600401610dc390613af8565b60405180910390fd5b60405180606001604052803373ffffffffffffffffffffffffffffffffffffffff16815260200183815260200160011515815250600d600085815260200190815260200160002060008201518160000160006101000a81548173ffffffffffffffffffffffffffffffffffffffff021916908373ffffffffffffffffffffffffffffffffffffffff1602179055506020820151816001015560408201518160020160006101000a81548160ff021916908315150217905550905050505050565b600660009054906101000a900473ffffffffffffffffffffffffffffffffffffffff1673ffffffffffffffffffffffffffffffffffffffff163373ffffffffffffffffffffffffffffffffffffffff1614610f1c576040517f08c379a0000000000000000000000000000000000000000000000000000000008152600401610f1390613b64565b60405180910390fd5b6000600660009054906101000a900473ffffffffffffffffffffffffffffffffffffffff1673ffffffffffffffffffffffffffffffffffffffff1647604051610f6490613bb5565b60006040518083038185875af1925050503d8060008114610fa1576040519150601f19603f3d011682016040523d82523d6000602084013e610fa6565b606091505b5050905080610fea576040517f08c379a0000000000000000000000000000000000000000000000000000000008152600401610fe190613c16565b60405180910390fd5b50565b6110088383836040518060200160405280600081525061187a565b505050565b600061101882611daa565b9050919050565b6000600d60008381526020019081526020016000206040518060600160405290816000820160009054906101000a900473ffffffffffffffffffffffffffffffffffffffff1673ffffffffffffffffffffffffffffffffffffffff1673ffffffffffffffffffffffffffffffffffffffff168152602001600182015481526020016002820160009054906101000a900460ff16151515158152505090508060400151611100576040517f08c379a00000000000000000000000000000000000000000000000000000000081526004016110f790613c82565b60405180910390fd5b8060200151341015611147576040517f08c379a000000000000000000000000000000000000000000000000000000000815260040161113e90613cee565b60405180910390fd5b600d6000838152602001908152602001600020600080820160006101000a81549073ffffffffffffffffffffffffffffffffffffffff021916905560018201600090556002820160006101000a81549060ff02191690555050806000015173ffffffffffffffffffffffffffffffffffffffff166108fc82602001519081150290604051600060405180830381858888f193505050501580156111ee573d6000803e3d6000fd5b506111fe816000015133846120c1565b5050565b60008073ffffffffffffffffffffffffffffffffffffffff168273ffffffffffffffffffffffffffffffffffffffff16036112755760006040517f89c62b6400000000000000000000000000000000000000000000000000000000815260040161126c9190612e94565b60405180910390fd5b600360008373ffffffffffffffffffffffffffffffffffffffff1673ffffffffffffffffffffffffffffffffffffffff168152602001908152602001600020549050919050565b6112c4612c2a565b6009600083815260200190815260200160002060405180610100016040529081600082015481526020016001820180546112fd90613711565b80601f016020809104026020016040519081016040528092919081815260200182805461132990613711565b80156113765780601f1061134b57610100808354040283529160200191611376565b820191906000526020600020905b81548152906001019060200180831161135957829003601f168201915b505050505081526020016002820154815260200160038201548152602001600482015481526020016005820180546113ad90613711565b80601f01602080910402602001604051908101604052809291908181526020018280546113d990613711565b80156114265780601f106113fb57610100808354040283529160200191611426565b820191906000526020600020905b81548152906001019060200180831161140957829003601f168201915b5050505050815260200160068201805461143f90613711565b80601f016020809104026020016040519081016040528092919081815260200182805461146b90613711565b80156114b85780601f1061148d576101008083540402835291602001916114b8565b820191906000526020600020905b81548152906001019060200180831161149b57829003601f168201915b505050505081526020016007820180546114d190613711565b80601f01602080910402602001604051908101604052809291908181526020018280546114fd90613711565b801561154a5780601f1061151f5761010080835404028352916020019161154a565b820191906000526020600020905b81548152906001019060200180831161152d57829003601f168201915b5050505050815250509050919050565b600d6020528060005260406000206000915090508060000160009054906101000a900473ffffffffffffffffffffffffffffffffffffffff16908060010154908060020160009054906101000a900460ff16905083565b600660009054906101000a900473ffffffffffffffffffffffffffffffffffffffff1681565b60075481565b6060600180546115ec90613711565b80601f016020809104026020016040519081016040528092919081815260200182805461161890613711565b80156116655780601f1061163a57610100808354040283529160200191611665565b820191906000526020600020905b81548152906001019060200180831161164857829003601f168201915b5050505050905090565b600660009054906101000a900473ffffffffffffffffffffffffffffffffffffffff1673ffffffffffffffffffffffffffffffffffffffff163373ffffffffffffffffffffffffffffffffffffffff16146116ff576040517f08c379a00000000000000000000000000000000000000000000000000000000081526004016116f690613b64565b60405180910390fd5b60076000815480929190611712906139c1565b91905055506040518061010001604052806007548152602001878152602001868152602001858152602001858152602001848152602001838152602001828152506009600060075481526020019081526020016000206000820151816000015560208201518160010190816117879190613eba565b5060408201518160020155606082015181600301556080820151816004015560a08201518160050190816117bb9190613eba565b5060c08201518160060190816117d19190613eba565b5060e08201518160070190816117e79190613eba565b50905050505050505050565b600a6020528160005260406000206020528060005260406000206000915091509054906101000a900460ff1681565b61183461182d611e6f565b838361222e565b5050565b600b6020528160005260406000206020528060005260406000206000915091509054906101000a900473ffffffffffffffffffffffffffffffffffffffff1681565b611885848484610c10565b611899611890611e6f565b8585858561239d565b50505050565b60606118aa82611daa565b5060006118b561254e565b905060008151116118d55760405180602001604052806000815250611900565b806118df84612565565b6040516020016118f0929190613fc8565b6040516020818303038152906040525b915050919050565b600660009054906101000a900473ffffffffffffffffffffffffffffffffffffffff1673ffffffffffffffffffffffffffffffffffffffff163373ffffffffffffffffffffffffffffffffffffffff1614611998576040517f08c379a000000000000000000000000000000000000000000000000000000000815260040161198f90613b64565b60405180910390fd5b600083141580156119ab57506007548311155b6119ea576040517f08c379a00000000000000000000000000000000000000000000000000000000081526004016119e190614038565b60405180910390fd5b600073ffffffffffffffffffffffffffffffffffffffff16600b6000858152602001908152602001600020600084815260200190815260200160002060009054906101000a900473ffffffffffffffffffffffffffffffffffffffff1673ffffffffffffffffffffffffffffffffffffffff1614611a9d576040517f08c379a0000000000000000000000000000000000000000000000000000000008152600401611a94906138d2565b60405180910390fd5b6009600084815260200190815260200160002060040154821115611af6576040517f08c379a0000000000000000000000000000000000000000000000000000000008152600401611aed906140a4565b60405180910390fd5b6000600960008581526020019081526020016000206003015411611b4f576040517f08c379a0000000000000000000000000000000000000000000000000000000008152600401611b4690614110565b60405180910390fd5b6001600960008581526020019081526020016000206003016000828254611b76919061398d565b925050819055506001600a600085815260200190815260200160002060008373ffffffffffffffffffffffffffffffffffffffff1673ffffffffffffffffffffffffffffffffffffffff16815260200190815260200160002060006101000a81548160ff02191690831515021790555080600b6000858152602001908152602001600020600084815260200190815260200160002060006101000a81548173ffffffffffffffffffffffffffffffffffffffff021916908373ffffffffffffffffffffffffffffffffffffffff160217905550600c600084815260200190815260200160002082908060018154018082558091505060019003906000526020600020016000909190919091505560086000815480929190611c96906139c1565b9190505550611ca781600854611e89565b505050565b6000600560008473ffffffffffffffffffffffffffffffffffffffff1673ffffffffffffffffffffffffffffffffffffffff16815260200190815260200160002060008373ffffffffffffffffffffffffffffffffffffffff1673ffffffffffffffffffffffffffffffffffffffff16815260200190815260200160002060009054906101000a900460ff16905092915050565b60007f01ffc9a7000000000000000000000000000000000000000000000000000000007bffffffffffffffffffffffffffffffffffffffffffffffffffffffff1916827bffffffffffffffffffffffffffffffffffffffffffffffffffffffff1916149050919050565b600080611db683612633565b9050600073ffffffffffffffffffffffffffffffffffffffff168173ffffffffffffffffffffffffffffffffffffffff1603611e2957826040517f7e273289000000000000000000000000000000000000000000000000000000008152600401611e20919061300a565b60405180910390fd5b80915050919050565b60006004600083815260200190815260200160002060009054906101000a900473ffffffffffffffffffffffffffffffffffffffff169050919050565b600033905090565b611e848383836001612670565b505050565b611ea3828260405180602001604052806000815250612835565b5050565b600080611eb384612633565b9050600073ffffffffffffffffffffffffffffffffffffffff168373ffffffffffffffffffffffffffffffffffffffff1614611ef557611ef4818486612859565b5b600073ffffffffffffffffffffffffffffffffffffffff168173ffffffffffffffffffffffffffffffffffffffff1614611f8657611f37600085600080612670565b6001600360008373ffffffffffffffffffffffffffffffffffffffff1673ffffffffffffffffffffffffffffffffffffffff168152602001908152602001600020600082825403925050819055505b600073ffffffffffffffffffffffffffffffffffffffff168573ffffffffffffffffffffffffffffffffffffffff1614612009576001600360008773ffffffffffffffffffffffffffffffffffffffff1673ffffffffffffffffffffffffffffffffffffffff168152602001908152602001600020600082825401925050819055505b846002600086815260200190815260200160002060006101000a81548173ffffffffffffffffffffffffffffffffffffffff021916908373ffffffffffffffffffffffffffffffffffffffff160217905550838573ffffffffffffffffffffffffffffffffffffffff168273ffffffffffffffffffffffffffffffffffffffff167fddf252ad1be2c89b69c2b068fc378daa952ba7f163c4a11628f55a4df523b3ef60405160405180910390a4809150509392505050565b600073ffffffffffffffffffffffffffffffffffffffff168273ffffffffffffffffffffffffffffffffffffffff16036121335760006040517f64a0ae9200000000000000000000000000000000000000000000000000000000815260040161212a9190612e94565b60405180910390fd5b600061214183836000611ea7565b9050600073ffffffffffffffffffffffffffffffffffffffff168173ffffffffffffffffffffffffffffffffffffffff16036121b457816040517f7e2732890000000000000000000000000000000000000000000000000000000081526004016121ab919061300a565b60405180910390fd5b8373ffffffffffffffffffffffffffffffffffffffff168173ffffffffffffffffffffffffffffffffffffffff1614612228578382826040517f64283d7b00000000000000000000000000000000000000000000000000000000815260040161221f93929190613a09565b60405180910390fd5b50505050565b600073ffffffffffffffffffffffffffffffffffffffff168273ffffffffffffffffffffffffffffffffffffffff160361229f57816040517f5b08ba180000000000000000000000000000000000000000000000000000000081526004016122969190612e94565b60405180910390fd5b80600560008573ffffffffffffffffffffffffffffffffffffffff1673ffffffffffffffffffffffffffffffffffffffff16815260200190815260200160002060008473ffffffffffffffffffffffffffffffffffffffff1673ffffffffffffffffffffffffffffffffffffffff16815260200190815260200160002060006101000a81548160ff0219169083151502179055508173ffffffffffffffffffffffffffffffffffffffff168373ffffffffffffffffffffffffffffffffffffffff167f17307eab39ab6107e8899845ad3d59bd9653f200f220920489ca2b5937696c31836040516123909190612d23565b60405180910390a3505050565b60008373ffffffffffffffffffffffffffffffffffffffff163b1115612547578273ffffffffffffffffffffffffffffffffffffffff1663150b7a02868685856040518563ffffffff1660e01b81526004016123fc9493929190614185565b6020604051808303816000875af192505050801561243857506040513d601f19601f8201168201806040525081019061243591906141e6565b60015b6124bc573d8060008114612468576040519150601f19603f3d011682016040523d82523d6000602084013e61246d565b606091505b5060008151036124b457836040517f64a0ae920000000000000000000000000000000000000000000000000000000081526004016124ab9190612e94565b60405180910390fd5b805181602001fd5b63150b7a0260e01b7bffffffffffffffffffffffffffffffffffffffffffffffffffffffff1916817bffffffffffffffffffffffffffffffffffffffffffffffffffffffff19161461254557836040517f64a0ae9200000000000000000000000000000000000000000000000000000000815260040161253c9190612e94565b60405180910390fd5b505b5050505050565b606060405180602001604052806000815250905090565b6060600060016125748461291d565b01905060008167ffffffffffffffff81111561259357612592613257565b5b6040519080825280601f01601f1916602001820160405280156125c55781602001600182028036833780820191505090505b509050600082602001820190505b600115612628578080600190039150507f3031323334353637383961626364656600000000000000000000000000000000600a86061a8153600a858161261c5761261b614213565b5b049450600085036125d3575b819350505050919050565b60006002600083815260200190815260200160002060009054906101000a900473ffffffffffffffffffffffffffffffffffffffff169050919050565b80806126a95750600073ffffffffffffffffffffffffffffffffffffffff168273ffffffffffffffffffffffffffffffffffffffff1614155b156127dd5760006126b984611daa565b9050600073ffffffffffffffffffffffffffffffffffffffff168373ffffffffffffffffffffffffffffffffffffffff161415801561272457508273ffffffffffffffffffffffffffffffffffffffff168173ffffffffffffffffffffffffffffffffffffffff1614155b801561273757506127358184611cac565b155b1561277957826040517fa9fbf51f0000000000000000000000000000000000000000000000000000000081526004016127709190612e94565b60405180910390fd5b81156127db57838573ffffffffffffffffffffffffffffffffffffffff168273ffffffffffffffffffffffffffffffffffffffff167f8c5be1e5ebec7d5bd14f71427d1e84f3dd0314c0f7b2291e5b200ac8c7c3b92560405160405180910390a45b505b836004600085815260200190815260200160002060006101000a81548173ffffffffffffffffffffffffffffffffffffffff021916908373ffffffffffffffffffffffffffffffffffffffff16021790555050505050565b61283f8383612a70565b61285461284a611e6f565b600085858561239d565b505050565b612864838383612b69565b61291857600073ffffffffffffffffffffffffffffffffffffffff168373ffffffffffffffffffffffffffffffffffffffff16036128d957806040517f7e2732890000000000000000000000000000000000000000000000000000000081526004016128d0919061300a565b60405180910390fd5b81816040517f177e802f00000000000000000000000000000000000000000000000000000000815260040161290f929190614242565b60405180910390fd5b505050565b600080600090507a184f03e93ff9f4daa797ed6e38ed64bf6a1f010000000000000000831061297b577a184f03e93ff9f4daa797ed6e38ed64bf6a1f010000000000000000838161297157612970614213565b5b0492506040810190505b6d04ee2d6d415b85acef810000000083106129b8576d04ee2d6d415b85acef810000000083816129ae576129ad614213565b5b0492506020810190505b662386f26fc1000083106129e757662386f26fc1000083816129dd576129dc614213565b5b0492506010810190505b6305f5e1008310612a10576305f5e1008381612a0657612a05614213565b5b0492506008810190505b6127108310612a35576127108381612a2b57612a2a614213565b5b0492506004810190505b60648310612a585760648381612a4e57612a4d614213565b5b0492506002810190505b600a8310612a67576001810190505b80915050919050565b600073ffffffffffffffffffffffffffffffffffffffff168273ffffffffffffffffffffffffffffffffffffffff1603612ae25760006040517f64a0ae92000000000000000000000000000000000000000000000000000000008152600401612ad99190612e94565b60405180910390fd5b6000612af083836000611ea7565b9050600073ffffffffffffffffffffffffffffffffffffffff168173ffffffffffffffffffffffffffffffffffffffff1614612b645760006040517f73c6ac6e000000000000000000000000000000000000000000000000000000008152600401612b5b9190612e94565b60405180910390fd5b505050565b60008073ffffffffffffffffffffffffffffffffffffffff168373ffffffffffffffffffffffffffffffffffffffff1614158015612c2157508273ffffffffffffffffffffffffffffffffffffffff168473ffffffffffffffffffffffffffffffffffffffff161480612be25750612be18484611cac565b5b80612c2057508273ffffffffffffffffffffffffffffffffffffffff16612c0883611e32565b73ffffffffffffffffffffffffffffffffffffffff16145b5b90509392505050565b60405180610100016040528060008152602001606081526020016000815260200160008152602001600081526020016060815260200160608152602001606081525090565b6000604051905090565b600080fd5b600080fd5b60007fffffffff0000000000000000000000000000000000000000000000000000000082169050919050565b612cb881612c83565b8114612cc357600080fd5b50565b600081359050612cd581612caf565b92915050565b600060208284031215612cf157612cf0612c79565b5b6000612cff84828501612cc6565b91505092915050565b60008115159050919050565b612d1d81612d08565b82525050565b6000602082019050612d386000830184612d14565b92915050565b600081519050919050565b600082825260208201905092915050565b60005b83811015612d78578082015181840152602081019050612d5d565b60008484015250505050565b6000601f19601f8301169050919050565b6000612da082612d3e565b612daa8185612d49565b9350612dba818560208601612d5a565b612dc381612d84565b840191505092915050565b60006020820190508181036000830152612de88184612d95565b905092915050565b6000819050919050565b612e0381612df0565b8114612e0e57600080fd5b50565b600081359050612e2081612dfa565b92915050565b600060208284031215612e3c57612e3b612c79565b5b6000612e4a84828501612e11565b91505092915050565b600073ffffffffffffffffffffffffffffffffffffffff82169050919050565b6000612e7e82612e53565b9050919050565b612e8e81612e73565b82525050565b6000602082019050612ea96000830184612e85565b92915050565b612eb881612e73565b8114612ec357600080fd5b50565b600081359050612ed581612eaf565b92915050565b60008060408385031215612ef257612ef1612c79565b5b6000612f0085828601612ec6565b9250506020612f1185828601612e11565b9150509250929050565b600081519050919050565b600082825260208201905092915050565b6000819050602082019050919050565b612f5081612df0565b82525050565b6000612f628383612f47565b60208301905092915050565b6000602082019050919050565b6000612f8682612f1b565b612f908185612f26565b9350612f9b83612f37565b8060005b83811015612fcc578151612fb38882612f56565b9750612fbe83612f6e565b925050600181019050612f9f565b5085935050505092915050565b60006020820190508181036000830152612ff38184612f7b565b905092915050565b61300481612df0565b82525050565b600060208201905061301f6000830184612ffb565b92915050565b6000806040838503121561303c5761303b612c79565b5b600061304a85828601612e11565b925050602061305b85828601612e11565b9150509250929050565b60008060006060848603121561307e5761307d612c79565b5b600061308c86828701612ec6565b935050602061309d86828701612ec6565b92505060406130ae86828701612e11565b9150509250925092565b6000602082840312156130ce576130cd612c79565b5b60006130dc84828501612ec6565b91505092915050565b600082825260208201905092915050565b600061310182612d3e565b61310b81856130e5565b935061311b818560208601612d5a565b61312481612d84565b840191505092915050565b6000610100830160008301516131486000860182612f47565b506020830151848203602086015261316082826130f6565b91505060408301516131756040860182612f47565b5060608301516131886060860182612f47565b50608083015161319b6080860182612f47565b5060a083015184820360a08601526131b382826130f6565b91505060c083015184820360c08601526131cd82826130f6565b91505060e083015184820360e08601526131e782826130f6565b9150508091505092915050565b6000602082019050818103600083015261320e818461312f565b905092915050565b600060608201905061322b6000830186612e85565b6132386020830185612ffb565b6132456040830184612d14565b949350505050565b600080fd5b600080fd5b7f4e487b7100000000000000000000000000000000000000000000000000000000600052604160045260246000fd5b61328f82612d84565b810181811067ffffffffffffffff821117156132ae576132ad613257565b5b80604052505050565b60006132c1612c6f565b90506132cd8282613286565b919050565b600067ffffffffffffffff8211156132ed576132ec613257565b5b6132f682612d84565b9050602081019050919050565b82818337600083830152505050565b6000613325613320846132d2565b6132b7565b90508281526020810184848401111561334157613340613252565b5b61334c848285613303565b509392505050565b600082601f8301126133695761336861324d565b5b8135613379848260208601613312565b91505092915050565b60008060008060008060c0878903121561339f5761339e612c79565b5b600087013567ffffffffffffffff8111156133bd576133bc612c7e565b5b6133c989828a01613354565b96505060206133da89828a01612e11565b95505060406133eb89828a01612e11565b945050606087013567ffffffffffffffff81111561340c5761340b612c7e565b5b61341889828a01613354565b935050608087013567ffffffffffffffff81111561343957613438612c7e565b5b61344589828a01613354565b92505060a087013567ffffffffffffffff81111561346657613465612c7e565b5b61347289828a01613354565b9150509295509295509295565b6000806040838503121561349657613495612c79565b5b60006134a485828601612e11565b92505060206134b585828601612ec6565b9150509250929050565b6134c881612d08565b81146134d357600080fd5b50565b6000813590506134e5816134bf565b92915050565b6000806040838503121561350257613501612c79565b5b600061351085828601612ec6565b9250506020613521858286016134d6565b9150509250929050565b600067ffffffffffffffff82111561354657613545613257565b5b61354f82612d84565b9050602081019050919050565b600061356f61356a8461352b565b6132b7565b90508281526020810184848401111561358b5761358a613252565b5b613596848285613303565b509392505050565b600082601f8301126135b3576135b261324d565b5b81356135c384826020860161355c565b91505092915050565b600080600080608085870312156135e6576135e5612c79565b5b60006135f487828801612ec6565b945050602061360587828801612ec6565b935050604061361687828801612e11565b925050606085013567ffffffffffffffff81111561363757613636612c7e565b5b6136438782880161359e565b91505092959194509250565b60008060006060848603121561366857613667612c79565b5b600061367686828701612e11565b935050602061368786828701612e11565b925050604061369886828701612ec6565b9150509250925092565b600080604083850312156136b9576136b8612c79565b5b60006136c785828601612ec6565b92505060206136d885828601612ec6565b9150509250929050565b7f4e487b7100000000000000000000000000000000000000000000000000000000600052602260045260246000fd5b6000600282049050600182168061372957607f821691505b60208210810361373c5761373b6136e2565b5b50919050565b7f496e76616c696420494400000000000000000000000000000000000000000000600082015250565b6000613778600a83612d49565b915061378382613742565b602082019050919050565b600060208201905081810360008301526137a78161376b565b9050919050565b7f4f63636173696f6e20646f6573206e6f74206578697374000000000000000000600082015250565b60006137e4601783612d49565b91506137ef826137ae565b602082019050919050565b60006020820190508181036000830152613813816137d7565b9050919050565b7f496e73756666696369656e742045544800000000000000000000000000000000600082015250565b6000613850601083612d49565b915061385b8261381a565b602082019050919050565b6000602082019050818103600083015261387f81613843565b9050919050565b7f5365617420616c72656164792074616b656e0000000000000000000000000000600082015250565b60006138bc601283612d49565b91506138c782613886565b602082019050919050565b600060208201905081810360008301526138eb816138af565b9050919050565b7f53656174206f7574206f662072616e6765000000000000000000000000000000600082015250565b6000613928601183612d49565b9150613933826138f2565b602082019050919050565b600060208201905081810360008301526139578161391b565b9050919050565b7f4e487b7100000000000000000000000000000000000000000000000000000000600052601160045260246000fd5b600061399882612df0565b91506139a383612df0565b92508282039050818111156139bb576139ba61395e565b5b92915050565b60006139cc82612df0565b91507fffffffffffffffffffffffffffffffffffffffffffffffffffffffffffffffff82036139fe576139fd61395e565b5b600182019050919050565b6000606082019050613a1e6000830186612e85565b613a2b6020830185612ffb565b613a386040830184612e85565b949350505050565b7f4e6f74207469636b6574206f776e657200000000000000000000000000000000600082015250565b6000613a76601083612d49565b9150613a8182613a40565b602082019050919050565b60006020820190508181036000830152613aa581613a69565b9050919050565b7f5072696365206d7573742062652067726561746572207468616e203000000000600082015250565b6000613ae2601c83612d49565b9150613aed82613aac565b602082019050919050565b60006020820190508181036000830152613b1181613ad5565b9050919050565b7f4e6f7420636f6e7472616374206f776e65720000000000000000000000000000600082015250565b6000613b4e601283612d49565b9150613b5982613b18565b602082019050919050565b60006020820190508181036000830152613b7d81613b41565b9050919050565b600081905092915050565b50565b6000613b9f600083613b84565b9150613baa82613b8f565b600082019050919050565b6000613bc082613b92565b9150819050919050565b7f5769746864726177206661696c65640000000000000000000000000000000000600082015250565b6000613c00600f83612d49565b9150613c0b82613bca565b602082019050919050565b60006020820190508181036000830152613c2f81613bf3565b9050919050565b7f5469636b6574206e6f74206c697374656420666f722073616c65000000000000600082015250565b6000613c6c601a83612d49565b9150613c7782613c36565b602082019050919050565b60006020820190508181036000830152613c9b81613c5f565b9050919050565b7f496e73756666696369656e74207061796d656e74000000000000000000000000600082015250565b6000613cd8601483612d49565b9150613ce382613ca2565b602082019050919050565b60006020820190508181036000830152613d0781613ccb565b9050919050565b60008190508160005260206000209050919050565b60006020601f8301049050919050565b600082821b905092915050565b600060088302613d707fffffffffffffffffffffffffffffffffffffffffffffffffffffffffffffffff82613d33565b613d7a8683613d33565b95508019841693508086168417925050509392505050565b6000819050919050565b6000613db7613db2613dad84612df0565b613d92565b612df0565b9050919050565b6000819050919050565b613dd183613d9c565b613de5613ddd82613dbe565b848454613d40565b825550505050565b600090565b613dfa613ded565b613e05818484613dc8565b505050565b5b81811015613e2957613e1e600082613df2565b600181019050613e0b565b5050565b601f821115613e6e57613e3f81613d0e565b613e4884613d23565b81016020851015613e57578190505b613e6b613e6385613d23565b830182613e0a565b50505b505050565b600082821c905092915050565b6000613e9160001984600802613e73565b1980831691505092915050565b6000613eaa8383613e80565b9150826002028217905092915050565b613ec382612d3e565b67ffffffffffffffff811115613edc57613edb613257565b5b613ee68254613711565b613ef1828285613e2d565b600060209050601f831160018114613f245760008415613f12578287015190505b613f1c8582613e9e565b865550613f84565b601f198416613f3286613d0e565b60005b82811015613f5a57848901518255600182019150602085019450602081019050613f35565b86831015613f775784890151613f73601f891682613e80565b8355505b6001600288020188555050505b505050505050565b600081905092915050565b6000613fa282612d3e565b613fac8185613f8c565b9350613fbc818560208601612d5a565b80840191505092915050565b6000613fd48285613f97565b9150613fe08284613f97565b91508190509392505050565b7f496e76616c6964206f63636173696f6e20494400000000000000000000000000600082015250565b6000614022601383612d49565b915061402d82613fec565b602082019050919050565b6000602082019050818103600083015261405181614015565b9050919050565b7f496e76616c69642073656174206e756d62657200000000000000000000000000600082015250565b600061408e601383612d49565b915061409982614058565b602082019050919050565b600060208201905081810360008301526140bd81614081565b9050919050565b7f4e6f207469636b657473206c6566740000000000000000000000000000000000600082015250565b60006140fa600f83612d49565b9150614105826140c4565b602082019050919050565b60006020820190508181036000830152614129816140ed565b9050919050565b600081519050919050565b600082825260208201905092915050565b600061415782614130565b614161818561413b565b9350614171818560208601612d5a565b61417a81612d84565b840191505092915050565b600060808201905061419a6000830187612e85565b6141a76020830186612e85565b6141b46040830185612ffb565b81810360608301526141c6818461414c565b905095945050505050565b6000815190506141e081612caf565b92915050565b6000602082840312156141fc576141fb612c79565b5b600061420a848285016141d1565b91505092915050565b7f4e487b7100000000000000000000000000000000000000000000000000000000600052601260045260246000fd5b60006040820190506142576000830185612e85565b6142646020830184612ffb565b939250505056fea2646970667358221220738be31db13e81e4815d2cf83ce30fdcf14c63c4d7f4e8d3bce1f32c1e4dea8c64736f6c634300081c0033",
  "linkReferences": {},
  "deployedLinkReferences": {}
}